:020000040800F2
:10000000A0070020C501000805050008010500083B
:1000100003050008D3020008610900080000000081
:100020000000000000000000000000008906000839
:10003000BB03000800000000A905000861070008D4
:10004000DF010008DF010008DF010008DF01000810
:10005000DF010008DF010008DF010008DF01000800
:10006000DF010008DF010008DF010008DF010008F0
:10007000DF010008DF010008DF010008DF010008E0
:10008000DF010008DF010008DF010008DF010008D0
:10009000DF010008DF010008DF010008DF010008C0
:1000A000DF010008DF010008DF010008DF010008B0
:1000B000DF010008DF010008DF010008DF010008A0
:1000C000DF010008DF010008DF010008DF01000890
:1000D000DF010008C1070008DF010008DF01000898
:1000E000DF010008DF010008DF010008DF01000870
:1000F000DF010008DF010008DF010008DF01000860
:10010000DF010008DF010008DF010008DF0100084F
:10011000DF010008DF010008DF010008DF0100083F
:10012000DF010008DF010008DF010008DF0100082F
:10013000DF010008DF010008DF010008DF0100081F
:10014000DF010008DF010008DF010008DF0100080F
:10015000D5020008DF01000831030008DF010008B4
:10016000DF010008DF010008DF010008DF010008EF
:10017000DF010008DF010008DF010008DF010008DF
:10018000DF010008DF010008DF010008DF010008CF
:10019000DF010008DF010008DF010008DF010008BF
:1001A000DF010008DF010008DF010008DFF810D0E0
:1001B00000F05EF800480047C50C0008AFF300806F
:1001C000A00700200648804706480047FEE7FEE7F4
:1001D000FEE7FEE7FEE7FEE7FEE7FEE7FEE7FEE7F7
:1001E00065070008AD01000840EA01039B0703D042
:1001F00009E008C9121F08C0042AFAD203E011F866
:10020000013B00F8013B521EF9D270472DE9F05F27
:100210000546002092469B46884606468146402475
:100220001BE0284641464746224600F042F8534626
:100230005A46C01A914110D311461846224600F082
:1002400029F82D1A67EB01084F46224601200021AC
:1002500000F020F817EB00094E41201EA4F1010424
:10026000DFDC484631462A464346BDE8F09F0000A1
:10027000064C074D06E0E06840F0010394E80700F3
:1002800098471034AC42F6D3FFF794FF740D000882
:10029000940D0008202A04DB203A00FA02F1002025
:1002A00070479140C2F1200320FA03F319439040B4
:1002B0007047202A04DB203A21FA02F0002170471F
:1002C00021FA02F3D040C2F12002914008431946BE
:1002D0007047FEE710B51148818921F00401818142
:1002E0000F4C4110204600F03DF8204600F05CF82D
:1002F0000C494FF4967240B1012008700A49BDE8DC
:10030000104001F51670FFF76FBF02200870074913
:10031000BDE8104001F59670FFF766BF0010014080
:1003200088640240100000201800002044010020D2
:1003300010B5094C0021204600F02AF80749204654
:1003400000F010F84FF49671204600F034F804499C
:100350000120487010BD0000B864024000800028F1
:1003600010000020074A904201D2074801E00548EA
:100370001038064A8B0001EA020101D5C1607047BE
:100380008160704710640240006002407D0F7D0F65
:10039000002904D0016841F0010101607047016843
:1003A00021F001010160704701460020096809033E
:1003B00000D50120704741607047704770B586B026
:1003C0000121084600F0F2F80121102000F0FCF8AD
:1003D00000248DF8164001208DF8170002258DF8B5
:1003E00015508DF81450400204901C4E04A930465C
:1003F00000F038F88DF814506902049104A93046D1
:1004000000F030F807220A21304600F069F8072290
:100410000921304600F064F84FF4E1300090ADF867
:100420000440ADF80640ADF80840ADF80C400C2093
:10043000ADF80A000A4C6946204600F02BFA00F09D
:1004400062F8012240F22551204600F008FA01210D
:10045000204600F0D1F906B070BD00000000024057
:10046000001001402DE9F041002201274FF0030C5C
:1004700007FA02F50B682B40AB422CD106685300FB
:100480000CFA03F4A64306600E79D0F800809E4073
:1004900046EA080606600E79012E01D0022E12D11E
:1004A0008668A64386604E79D0F808809E4046EA6A
:1004B000080686604668AE43466045688E79964079
:1004C000B6B235434560C568A543C560CC799C404C
:1004D000C3681C43C460521C102AC9D3BDE8F08114
:1004E00010B54B07DB0E9A40C90800EB8100016A8A
:1004F0000F249C40A1430162016A1143016210BDB7
:10050000FEE7FEE7704708B54FF4A06000F042F840
:1005100025208DF8000001208DF801008DF80200E3
:100520008DF80300684600F001F808BD30B50F23D0
:10053000C27801250178002A1FD0154A126802F4FA
:10054000E062C2F5E062C2F30722C2F10404D340C4
:100550004278A24084781C401443220101F1E0213A
:1005600081F80024007800F01F018D4040098000D0
:1005700000F1E020C0F8005130BD01F01F008540BF
:100580004809800000F1E020C0F8805130BD000033
:100590000CED00E002490843024908607047000082
:1005A0000000FA050CED00E070470000054A002944
:1005B00003D01168014311607047116881431160D5
:1005C0007047000030380240054A002903D0116806
:1005D000014311607047116881431160704700004A
:1005E0004438024070B5244B196801F00C01234CCB
:1005F00000291ED0224E04291DD008291DD00460D8
:10060000196801F0F00109091E4A545C0168E140D3
:1006100041601C6804F4E054A40A145D21FA04F457
:1006200084601B6803F460435B0BD25CD140C16003
:1006300070BD0460E4E70660E2E70F4A121F11682C
:10064000C1F38055116801F03F0135B1B6FBF1F1FE
:100650001468C4F38814614305E0B4FBF1F1146835
:10066000C4F3881461431268C2F30142521C520061
:10067000B1FBF2F10160C3E7083802400024F40046
:1006800040787D0100000020704700001CB500216B
:10069000019100912E4A106840F4803010604FF4B0
:1006A000A043106800F4003000900198401C0190B5
:1006B000009810B901989842F3D11068800302D5D0
:1006C0000120009000E00091009801283FD12048CF
:1006D0004030016841F0805101601E49086840F4D3
:1006E000404008601A48083003680360036843F418
:1006F00000430360036843F4A0530360041F164BD8
:100700002360136843F08073136013689B01FCD56A
:100710000A6842F480320A604A68D203FCD50A684B
:1007200042F400320A604A689203FCD50B4A40F258
:1007300005711160016821F003010160016841F059
:10074000020101600168C1F381010229FAD11CBDD7
:100750000038024000700040195A4007003C024037
:100760007047000010B51248016841F47001016043
:100770001048016841F0010101600E4A0021083271
:10078000116002680C4B1A400260031D0B4A1A608C
:10079000026822F48022026006480C300160FFF7F4
:1007A00075FF03494FF000608039086010BD0000FC
:1007B00088ED00E000380240FFFFF6FE1030002414
:1007C00070B50A4C40F225552946204600F027F81E
:1007D00030B1204600F0BCF8C1B2204600F0BCF8B1
:1007E00029462046BDE8704000F002B800100140E4
:1007F0008A05C94301807047002904D0818941F4EA
:10080000005181817047818921F4005181817047B5
:100810000246002012880A4200D00120704770B5BD
:10082000002440F66A12C1F3421301F01F050126AD
:1008300006FA05F2012B0CD0022B0DD0838A13404F
:10084000090A8E40008830400BB100B101242046D7
:1008500070BD83891340F3E7038A1340F0E710B5B6
:1008600040F66A13C1F3421301F01F040121A140B5
:10087000012B07D0022B07D014303AB102680A438B
:10088000026010BD0C30F8E71030F6E702688A43CA
:10089000026010BD7FB504460D46208A20F4405109
:1008A000E88808432082A08941F20C618843A98826
:1008B0002A8911436A8902431143A181A08A20F445
:1008C0004071A8890843A0826846FFF78BFE1E4846
:1008D000844202D01D48844201D1039800E002986E
:1008E000A189090408D500EBC00101EB00102968BB
:1008F0004900B0FBF1F007E000EBC00101EB001094
:1009000029688900B0FBF1F06422B0FBF2F1090123
:100910000B096FF018056B4300EB8300A3891D04DE
:100920004FF0320307D503EBC000B0FBF2F000F04C
:100930000700084306E003EB0010B0FBF2F000F004
:100940000F00084320817FBD0010014000140140CA
:100950008088C0F308007047C1F3080181807047A8
:10096000FEE710B504462046FFF7F6FF802120463B
:10097000FFF74EFF0028F9D010BD70B506460D46B2
:1009800000243046295DFFF7ECFF641C285D002839
:10099000F7D140213046FFF73BFF0028F9D070BD6A
:1009A0000FB4054B10B503A9044A029800F018F8DB
:1009B00010BC5DF814FB0000A10C0008140000201E
:1009C00002E008C8121F08C1002AFAD17047704718
:1009D000002001E001C1121F002AFBD17047000076
:1009E0002DE9FF4F8DB09B460F460446002606E0DA
:1009F00025280BD05A460F999047641C761C207806
:100A00000028F5D111B03046BDE8F08F0025A8468A
:100A10000122984900E0054314F8013F203B02FA07
:100A200003F00842F7D120782E2817D114F8010FCF
:100A300045F004052A280ED06FF02F022078A0F18F
:100A4000300109290AD808EB880102EB410100EBCB
:100A50000108641CF2E757F8048B641C20786C28AA
:100A60000DD004DC4C2812D06A2811D104E074287F
:100A70000DD07A280CD10AE045F4001507E0617822
:100A800045F48015814202D1641C05F58015641C73
:100A90002078692844D008DC0028B3D0582867D0D3
:100AA00063280FD0642808D13AE0702865D07328F5
:100AB00012D075285AD078285AD05A460F999047A4
:100AC000761CD5E017F8040B8DF8000000208DF897
:100AD0000100E946012003E057F8049B4FF0FF3086
:100AE00069074FF0000501D40AE06D1C45450DDA99
:100AF0008542FADB19F805100029F6D106E06D1CD5
:100B00008542FCDB19F805100029F8D12E4404E0D9
:100B100019F8010B5A460F9990476D1EF8D2A7E0BD
:100B20000A200021CDE90801C5F3025002280CD0AB
:100B300001CFC117021E71F100020CDA0023D0EBC5
:100B4000030063EB01012D2208E0FF1D27F00707DA
:100B5000F7E80201EEE72A0504D52B228DF82820BC
:100B600001223CE0EA073AD02022F7E70A2000E021
:100B700010200021CDE9080107E01020002145F0F8
:100B80000405CDE908014FF00808C5F3025002281A
:100B900010D001CF00214FF0000A2A0720D522787B
:100BA000702A0DD0DDE908C38CF0100C5CEA030C50
:100BB0000CD015E0FF1D27F00707F7E80201EAE770
:100BC00040228DF828204FF0010A0CE050EA010382
:100BD00006D030238DF828308DF829200222924645
:100BE0002278582A04D024A20DF120090B9209E0A2
:100BF00026A2F9E7DDE90823FFF708FB0B9B9B5CC6
:100C000009F8013D50EA0102F4D1ADEB09002030B2
:100C10000890680701D44FF001080899884503DD62
:100C20000898A8EB000000E000208046002506E0C0
:100C30000AA85A46405D0F9990476D1C761C554591
:100C4000F6DB04E030205A460F999047761CB8F145
:100C50000001A8F10108F5DC05E019F8010B5A467E
:100C60000F999047761C0899481E08900029F4DCDB
:100C7000641CC4E60928010030313233343536377C
:100C800038396162636465660000000030313233D8
:100C90003435363738394142434445460000000078
:100CA00070B50446064DE1B22846FFF755FE802197
:100CB0002846FFF7ADFD0028F9D0204670BD0000A2
:100CC000001001401FB516A003C8CDE9020116A00F
:100CD00003C8CDE90001FFF771FB1D4E14A130469A
:100CE000FFF74BFE12A0FFF75BFE1A4C00252178A0
:100CF000012902D0022904D006E0257000F02CF86A
:100D000002E0257000F028F820785528EFD12570F2
:100D100000F022F801213046FFF76EFDE7E7000002
:100D2000AAFB000112340000FBAA000112340000EB
:100D3000D5E2CAC7D2BBB8F6B4AEBFDAD6D0B6CF0A
:100D4000BDD3CAD5BBD8CFD4CAB5D1E90A000000FB
:100D50000010014010000020044948780128FDD10E
:100D60000020487001210248FFF712BB100000204C
:100D7000B8640240940D0008000000201800000034
:100D8000C0090008AC0D000818000020880700000A
:100D9000D00900080000000001020304010203045E
:0C0DA00006070809000100000000000028
:04000005080001AD41
:00000001FF
